:100000000EC028C027C0D6C125C024C023C022C02E
:1000100021C020C01FC01EC04CC01CC01BC011246A
:100020001FBECFE5D2E0DEBFCDBF10E0A0E6B0E05E
:10003000E6EFF9E002C005900D92A636B107D9F7B8
:1000400010E0A6E6B0E001C01D92A337B107E1F7CA
:1000500050D4CFC4D5CFF8949C018A30910514F0C8
:1000600029E030E0C90187709927283031050CF06C
:100070008062806194B7977F94BFF89491B598613E
:1000800091BD81BD81B5806481BD7894089585B7A7
:10009000877E806185BF85B7806285BF85B78062B6
:1000A00085BF889585B78F7D85BF85B78F7D85BFD7
:1000B00008951F920F920FB60F9211248F9385B758
:1000C0008F7D85BF81E08093600085B7806285BFAA
:1000D0008F910F900FBE0F901F901895FC016587B0
:1000E0000895FC01608387B3862B87BB08956093D6
:1000F000610087B36095682367BB0895FC01618345
:10010000089520E030E0C69603C000002F5F3F4F07
:1001100082179307D4F70895A1E0B0E0E1E9F0E099
:100120003FC48C014983DDDF4981F801428320E02F
:100130003CE002C0359527954A95E2F7A90148555C
:10014000510954834383C9010297908787832E52B4
:100150003109368325836181662301F164E0569578
:1001600047956A95E1F754834383369527953695ED
:100170002795368325839C01220F331F220F331FBF
:1001800030872783C90163E070E0E8D37287618715
:10019000C90166E070E0E2D3748763872196E4E0EA
:1001A0001BC4CF93DF93EC018F819885AADF88B3BE
:1001B0009881892B88BB89859A85A3DF98B388812C
:1001C0008095892388BB8B859C859BDF88B398812C
:1001D000892B88BBDF91CF910895CF93DF93EC01FA
:1001E0008B819C818EDF88B39881892B88BB8B8122
:1001F0009C8187DF98B388818095892388BBDF91B4
:10020000CF910895CF93DF93EC018B819C8179DFAF
:1002100088B39881892B88BB8D819E8172DF98B3CA
:1002200088818095892388BBDF91CF910895A1E0D3
:10023000B0E0ECE1F1E0ACC34C01B62EC42E598322
:10024000B0DFC401CADF0C2D5981152F9AECA92EFD
:1002500013C0F801D1908F01DA24B8E0FB2E80E8BA
:10026000E82E8E2D8D2119F4C401B7DF02C0C40120
:10027000C9DFE694FA94A9F7802F8C198B1548F3FF
:10028000C401ABDFC401A9DF2196ECE09DC38093DC
:10029000620070936400609363001092650008959B
:1002A00081E090916500933009F080E0089527B3D4
:1002B000909161009095922397BB94E890BF20E4C1
:1002C00030E002C0359527958A95E2F721502DBD83
:1002D0001EBC89B7806489BF1FBC0895A1E0B0E04F
:1002E000E3E7F1E05FC3498302DF4981842FDFDF69
:1002F0002196E2E073C3EF92FF921F93CF93DF93B7
:100300001F92CDB7DEB77C01142F422F298304DF63
:100310002981422F612FC701E1DF0F90DF91CF913B
:100320001F91FF90EF900895809362007093640096
:100330006093630010926500089581E090916500DC
:10034000933009F080E008950F93CF93DF93DC01A1
:10035000EB01ED91FC911197EE0FFF1FE02B119631
:10036000FC93EE9388818F5F88838031F9F48D91BF
:100370009C911197F8E0E0E0EE0FBC0161707727E7
:10038000E62B9695879596958795F150A9F78D93CD
:100390009C93DA018C91D901A80FB11D8AEC8E27AC
:1003A0008C93FA0180818F5F80831882DF91CF91D7
:1003B0000F9108951F920F920FB60F9211240F9371
:1003C0001F932F933F934F935F936F937F938F93DD
:1003D0009F93AF93BF93CF93DF93EF93FF9350918E
:1003E0006500533008F093C020916700422F485FAA
:1003F0004093670096B380916100892311E009F46E
:1004000010E0C12FD0E0D0936900C09368008091C4
:100410006A0090916B0031E0C817D90709F430E009
:1004200051110DC0332309F46EC0C130D10509F05C
:100430006AC01092670010926C0081E053C0513086
:1004400089F5332309F45FC030916C00343118F022
:100450008130910529F4522F5951513208F027C0AB
:10046000009721F42951213608F021C0232F2F5F56
:1004700020936C00892B89F4243108F442C0423463
:1004800060F082E08093650010926E0010926D0023
:1004900010926F001092700034C0203290F11092D0
:1004A00065002FC0332379F12951213618F01092BD
:1004B000650029C0423460F02091630030916400EF
:1004C000082F40E750E06FE670E08DE690E03CDFFB
:1004D000C130D10551F4909170008091620098175D
:1004E00020F083E0809365000EC02091630030917E
:1004F0006400012F40E750E06FE670E08DE690E089
:1005000023DF10926700D0936B00C0936A00FF91C5
:10051000EF91DF91CF91BF91AF919F918F917F919B
:100520006F915F914F913F912F911F910F910F907C
:100530000FBE0F901F90189598E028E1362F3827AE
:1005400030FD02C0669503C0622766956068869597
:100550009150A1F7862F089598E0282F262720FD97
:1005600003C07695679507C022E0622720E47227D2
:100570007695679570688695915079F7CB010895C7
:10058000EF92FF920F931F93CF93DF93EC017C01C7
:1005900087E0E80EF11C8E0160E0F80181918F0187
:1005A000CBDF682F0E151F05C1F781E09F8169130E
:1005B00001C080E0CDB7DEB7E6E00CC297B380950E
:1005C000982397BB98B3982398BB80EA8A95F1F754
:1005D00008952FB7F89497B3982B97BB98B380954D
:1005E000982398BB92E09A95F1F797B3982397BB1D
:1005F00098B3982398BB85E18A95F1F700002FBF47
:1006000008952FB7F89497B3982B97BB98B380951C
:10061000982398BB94E19A95F1F797B3982397BBE9
:1006200098B3982398BB83E08A95F1F700002FBF19
:1006300008951F93CF93DF93C82F162FD8E0812FF3
:10064000C0FF02C0C6DF01C0DCDFC695D150B9F7DC
:10065000DF91CF911F910895FF920F931F93CF9336
:10066000DF93EC01F62E85E5E4DF8E01085F1F4F76
:100670006F2D8991DEDFC017D107D1F7CDB7DEB777
:10068000E5E0A9C1682F8CECD4DF08953FB7F8945A
:1006900097B3982B97BB98B3282F2095922398BB9C
:1006A00092E09A95F1F797B3922397BB98B3922370
:1006B00098BB23E02A95F1F796B322E12A95F1F74A
:1006C00000003FBF89230895A0E0B0E0E9E6F3E031
:1006D00063C1EC01D62EF42E642F80EFAADF11E067
:1006E000E12C01E08F2DD2DFC82E8F2DCFDFCC2063
:1006F00019F0882329F02BC09881882349F003C082
:100700008881812B03C0812F8095892388830FC026
:100710000D1103C0912B98830AC0D01628F4812FA5
:1007200080958923888302C0912309F4E02E888173
:10073000812319F08F2D4DDF02C08F2D62DF0F5FF7
:10074000110F11F4219611E0013461F602C0EE247C
:10075000EA948E2DCDB7DEB7E8E03AC11F93CF9370
:10076000DF93182FD8E0C0E0C695812F8FDF81116D
:10077000C068D150C9F78C2FDF91CF911F91089598
:10078000FF920F931F93CF93DF93EC01F62E83E339
:1007900050DF8E01085F1F4F8F2DE0DF8993C01758
:1007A000D107D1F7CDB7DEB7E5E015C13FB7F89473
:1007B00097B3982B97BB98B3282F2095922398BB7B
:1007C00090EA9A95F1F797B3922397BB98B3922347
:1007D00098BB27E12A95F1F7000096B328E82A95FF
:1007E000F1F700C03FBF909589230895A0E0B0E0E5
:1007F000EBEFF3E0CEC08C01842FF801389690E047
:100800001BC0DF0118971C92DF0117971C92DF01B4
:1008100016971C92DF0115971C92DF0114971C920A
:10082000DF0113971C92DF0112971C92DF011197D1
:100830001C9210829F5F39969613E3CFB7DFA82EE4
:10084000E801219648E0E42EF12CDD24D394C12C5C
:1008500058E0952E8D2D8A2129F1FE01B12CDE0163
:10086000892D01900D928A95E1F78D2D9FDF4D2DF9
:100870006B2DCE0129DFB82E8C2D90E069E070E061
:100880005BD0F801E80FF91FD082C3948C2D90E063
:1008900069E070E051D0800F911F0196FE01EC01DC
:1008A000B110DDCFDD0C81E0E81AF10899F6C0E067
:1008B00008C0C801019664DE075F1F4F813029F030
:1008C000CF5FCC11F6CF80E001C08FEFCDB7DEB7A0
:1008D000EBE07BC090E007C0FB012181281739F0D5
:1008E000675F7F4F9F5F9413F7CF60E070E0CB01AD
:1008F000089588E10FB6F89481BD11BC0FBE89E060
:1009000090E0A9DB8FEF87BB18BA13C028B32095FE
:1009100028BBE7EAF1E63197F1F700C00000019645
:100920008A3091059CF3B3DB809166008F5F8093E2
:10093000660080E090E0F4CF5527002480FF02C0DD
:10094000060E571F660F771F6115710521F09695EA
:100950008795009799F7952F802D0895AA1BBB1BAB
:1009600051E107C0AA1FBB1FA617B70710F0A61BAF
:10097000B70B881F991F5A95A9F780959095BC01D0
:10098000CD0108952F923F924F925F926F927F9286
:100990008F929F92AF92BF92CF92DF92EF92FF928F
:1009A0000F931F93CF93DF93CDB7DEB7CA1BDB0B3B
:1009B0000FB6F894DEBF0FBECDBF09942A883988E0
:1009C00048885F846E847D848C849B84AA84B984E7
:1009D000C884DF80EE80FD800C811B81AA81B981F3
:1009E000CE0FD11D0FB6F894DEBF0FBECDBFED0107
:0609F0000895F894FFCF0A
:0609F60001FF0271000484
:00000001FF
